:100000000C942A000C9447000C9447000C94470071
:100010000C9447000C9447000C9447000C94470044
:100020000C9447000C9447000C9436010C940F017B
:100030000C9447000C9447000C9447000C94470024
:100040000C9447000C9447000C9447000C94470014
:100050000C94470011241FBECFE5D8E0DEBFCDBF12
:1000600010E0A0E6B0E0ECECFDE002C005900D92DF
:10007000A037B107D9F710E0A0E7B0E001C01D92AA
:10008000A437B107E1F70E9485060C94E4060C94AE
:10009000000081B5886081BD089591B5986091BDDB
:1000A00091B5987F91BD91B5982B91BD089581B57B
:1000B000886181BD089583E389B986E880BD52983F
:1000C000549A539A08955D9BFECF8CB908955F9B17
:1000D000FECF8CB108959EB5987F9EBD9EB587706A
:1000E000892B8EBD08959FB59C7F9FBD2FB5982FFE
:1000F0009370922B9FBD9EB5977E9EBD9EB58871D5
:10010000982B9EBD8FB58F708FBD8FB5607F862B6E
:100110008FBD089599B78C73892B89BF089599B7BE
:100120008C738095892389BF08958CBD089597BDF0
:1001300086BD08959BBD8ABD089588BD089521E0C0
:1001400030E002C0220F331F8A95E2F788B790E0B3
:1001500082239323892BD1F308952EB590E4982719
:10016000922B9EBD089526B537B5C901089593B762
:100170009E7F93BF93B79D7F93BF93B79B7F93BFA2
:1001800093B7982B93BF089593B79F7B93BF93B773
:10019000977F93BF93B7982B93BF83B78F7E83BF0F
:1001A00083B78F7D83BF83B7862B83BF089582BFBC
:1001B00008958CBF089599B79E7F99BF99B79D7F89
:1001C00099BF99B7982B99BF0895813041F082303B
:1001D00019F489B78D7F05C089B78D7F89BF89B72D
:1001E0008E7F89BF0895882339F408B600FEFDCFBD
:1001F00088B7816088BF0895813031F408B601FC6A
:10020000FDCF88B7826088BF089590937100809376
:1002100070000895909373008093720008951F9268
:100220000F920FB60F9211242F933F934F935F932A
:100230006F937F938F939F93AF93BF93EF93FF93AE
:10024000E0917000F09171000995FF91EF91BF91DD
:10025000AF919F918F917F916F915F914F913F915E
:100260002F910F900FBE0F901F9018951F920F9215
:100270000FB60F9211242F933F934F935F936F9379
:100280007F938F939F93AF93BF93EF93FF93E091EF
:100290007200F09173000995FF91EF91BF91AF91BA
:1002A0009F918F917F916F915F914F913F912F918E
:1002B0000F900FBE0F901F9018956D98442311F06A
:1002C000443009F46A98662311F46B9803C06830CF
:1002D00009F46B9A803111F46C9A03C0882309F4F5
:1002E0006C988DB18C7F8DB970989DB1822F837081
:1002F000892B8DB98EB122952F70822B8EB96E9A73
:1003000008956E9808958FB9779BFECF0895779BD7
:10031000FECF8FB10895779BFECF8FB908956F9A66
:1003200008956F980895982F0898089882E080B9EA
:10033000992311F0990F92B986B7846086BF08950A
:1003400086B7806286BF86B7806886BF06B607FE1E
:10035000FDCF81B190E0887F883009F491E0892F4A
:10036000089586B7806286BF86B7806886BF06B666
:1003700007FEFDCF81B1887F803111F080E00895C4
:1003800082E0089586B7806186BF86B7806886BFA1
:1003900006B607FEFDCF0895880F862B83B986B772
:1003A0008F7D86BF86B7806886BF93E011C081B11C
:1003B000887F883161F081B1887F883441F081B1D4
:1003C000887F803421F081B1887F883409F490E0FF
:1003D00006B607FEECCF892F089583B986B78068EB
:1003E00086BF94E009C081B1887F883221F081B155
:1003F000887F803309F490E006B607FEF4CF892F9A
:100400000895FC0186B7806886BF06B607FEFDCF5B
:1004100083B1808381B1887F803531F081B1887F5D
:10042000883511F085E0089580E0089586B78064EE
:1004300086BF089586B78F7B86BF08958FB7806883
:100440008FBF08958FB78F778FBF0895813051F098
:10045000813028F0823079F0833099F406C085B776
:100460008D7F05C085B78D7F08C085B7826085BF49
:1004700085B78E7F05C085B7826085BF85B78160EF
:1004800085BF8BB780648BBF0895813051F0813078
:1004900028F0823079F0833099F406C085B7877FE1
:1004A00005C085B7877F08C085B7886085BF85B7D9
:1004B0008B7F05C085B7886085BF85B7846085BFA1
:1004C0008BB780688BBF0895823019F0833039F480
:1004D00003C084B7806402C084B78F7B84BF8BB7AE
:1004E00080628BBF08958BB780648BBF08958BB7F4
:1004F00080688BBF08958BB780628BBF08954423BB
:10050000D1F58130A1F0813030F08230E1F08330DC
:1005100009F067C024C02AB381E090E002C0880FD0
:10052000991F6A95E2F7809582238ABB089527B3C5
:1005300081E090E002C0880F991F6A95E2F78095EC
:10054000822387BB089524B381E090E002C0880F26
:10055000991F6A95E2F78095822384BB089521B3A1
:1005600081E090E002C0880F991F6A95E2F78095BC
:10057000822381BB08954130A1F5813091F0813013
:1005800028F08230C9F0833061F521C02AB381E0C0
:1005900090E002C0880F991F6A95E2F7282B2ABBCA
:1005A000089527B381E090E002C0880F991F6A95F3
:1005B000E2F7282B27BB089524B381E090E002C026
:1005C000880F991F6A95E2F7282B24BB089521B361
:1005D00081E090E002C0880F991F6A95E2F7282B0E
:1005E00021BB08954130B1F5813099F0813030F070
:1005F0008230D1F0833009F067C021C02BB381E095
:1006000090E002C0880F991F6A95E2F7282B2BBB58
:10061000089528B381E090E002C0880F991F6A9581
:10062000E2F7282B28BB089525B381E090E002C0B3
:10063000880F991F6A95E2F7282B25BB089522B3EE
:1006400081E090E002C0880F991F6A95E2F7282B9D
:1006500022BB08954423C1F5813099F0813028F000
:100660008230D9F0833081F524C02BB381E090E053
:1006700002C0880F991F6A95E2F7809582238BBB91
:10068000089528B381E090E002C0880F991F6A9511
:10069000E2F78095822388BB089525B381E090E03E
:1006A00002C0880F991F6A95E2F78095822385BB67
:1006B000089522B381E090E002C0880F991F6A95E7
:1006C000E2F78095822382BB0895FA01813049F0D8
:1006D000813028F0823039F08330C1F40EC089B304
:1006E00003C086B301C083B390E002C0959587959F
:1006F0006A95E2F781708083089580B390E002C02C
:10070000959587956A95E2F7817080830895813089
:1007100049F0813028F0823039F0833041F406C04E
:100720006ABB089567BB089564BB089561BB0895D3
:10073000813049F0813028F0823039F0833041F443
:1007400006C06BBB089568BB089565BB089562BB86
:100750000895FB01813049F0813028F0823039F072
:10076000833051F407C089B303C086B301C083B39B
:100770008083089580B380830895882311F4379887
:100780000895813011F43D98379A08953F983E9826
:1007900097B1982B97B932983198309886B1862BBB
:1007A00086B90895389839983A983B983C9897B10B
:1007B000982B97B90895369A0895882311F435989F
:1007C0000895813009F4359A089590B79F7D90BFC0
:1007D00090B79F7B90BF90B79F7790BF90B7982BB3
:1007E00090BF0895882311F433980895813009F457
:1007F000339A0895FC0124B145B1942F80E030E094
:10080000822B932B918380830895882319F0813064
:10081000B9F40AC06031A8F0603210F4606111C010
:10082000683270F460620DC0603110F4606409C019
:10083000603210F4606505C0683210F4606601C073
:1008400060E0862F08957F928F929F92AF92BF9221
:10085000CF92DF92EF92FF920F931F93CF93DF938C
:100860005B016C014A0197FD02C077240DC08DE247
:10087000FA018083D094C094B094A094A11CB11CC0
:10088000C11CD11C772473948AE0E82EF12C012D31
:10089000112D0AC0C801B7012AE030E040E050E065
:1008A0000E9488067B018C01C601B501A801970151
:1008B0000E94A706211531054105510559F7C801C8
:1008C000B7012AE030E040E050E00E94A706C901ED
:1008D000DA017C018D0122C0C80DD91DC601B50108
:1008E000A80197010E94A706205D2883C601B501D3
:1008F000A80197010E94A706AC01CB01DA015C01B7
:100900006D01C801B7012AE030E040E050E00E94EC
:10091000A706C901DA017C018D017394C72DD0E0CF
:100920001E141F0410061106BCF2C80DD91D188232
:10093000DF91CF911F910F91FF90EF90DF90CF90BB
:10094000BF90AF909F908F907F9008951F93182F26
:1009500083E062E040E00E94F20283E061E040E078
:100960000E94F20280E0612F0E94980383E060E021
:1009700041E00E94F20280EA9FE00197F1F783E0F4
:1009800060E040E00E94F2021F9108950E94050479
:1009900080680E94A60408950F931F9380E991E058
:1009A00028EC30E0F9013197F1F70197D9F78CE3A2
:1009B0000E94A60400ED17E0C8010197F1F78CE052
:1009C0000E94A604C8010197F1F781E00E94A604E5
:1009D0001F910F9108951F93182F83E062E041E06B
:1009E0000E94F20283E061E040E00E94F20280E0B7
:1009F000612F0E94980383E060E041E00E94F202D0
:100A000080EA9FE00197F1F783E060E040E00E9418
:100A1000F2021F9108951F93142F0E94050480680D
:100A20000E94A604812F0E94EB041F9108951F933A
:100A3000CF93DF93EC0110E003C00E94EB041F5F33
:100A4000FE01E10FF11D80818823B9F7DF91CF917D
:100A50001F9108950F931F938A010E9405048068D7
:100A60000E94A604C8010E9417051F910F910895C6
:100A70008F929F92BF92CF92DF92EF92FF920F934D
:100A80001F93DF93CF93CDB7DEB769970FB6F89476
:100A9000DEBF0FBECDBF91E0998383E08A8382E001
:100AA0008B831C829D8385E08E8384E08F8386E028
:100AB000888787E08987DE011A96E0E6F0E080E12A
:100AC00001900D928150E1F7EE24FF2432E0832E55
:100AD000912C8C0E9D1E6E010894C11CD11CF4013A
:100AE000EE0DFF1DB08081E06B2D40E00E94F20210
:100AF0001E8181E0612FA6010E9465038981882300
:100B000019F480E090E025C01F8181E0612FA601EB
:100B10000E9465038981882319F481E090E019C05F
:100B2000188581E0612FA6010E94650389818823D1
:100B300019F482E090E00DC081E067E0A6010E9418
:100B400065038981882311F004E616C083E090E0F4
:100B500017E0F701EE0FFF1FEE0FFF1FEC0DFD1D5D
:100B6000E80FF91F018505C081E0612FA6010E94F1
:100B7000650389818823C1F381E06B2D41E00E94E8
:100B8000F202043641F40894E11CF11C84E0E816FA
:100B9000F10409F0A4CF802F69960FB6F894DEBF58
:100BA0000FBECDBFCF91DF911F910F91FF90EF90BE
:100BB000DF90CF90BF909F908F90089580E061E08C
:100BC00040E00E94F20280E064E040E00E94F20215
:100BD00088EE93E028EC30E0F9013197F1F70197C6
:100BE000D9F780E063E041E00E94F20280E062E039
:100BF00041E00E94F202089580E063E040E00E943C
:100C0000F20280E062E040E00E94F20288EE93E0AF
:100C100028EC30E0F9013197F1F70197D9F780E03E
:100C200061E041E00E94F20280E064E041E00E9465
:100C3000F202089580E061E040E00E94F20280E06C
:100C400062E040E00E94F20280E063E040E00E9447
:100C5000F20280E064E040E00E94F20288EE93E05D
:100C600028EC30E0F9013197F1F70197D9F70895B1
:100C7000EF92FF921F93DF93CF930F92CDB7DEB722
:100C8000162F1982E82EFF24C70126E0880F991F2E
:100C90002A95E1F7182BEE0CFF1C80E5E82A0E944C
:100CA000A0018E2D60E00E94CC01812F0E94ED01F9
:100CB0000E94B1018E2D61E00E94CC01CE0101960F
:100CC0000E9401020E94C20189810F90CF91DF91A1
:100CD0001F91FF90EF900895FF920F931F93182F8D
:100CE000062FF42E0E94A001812F886A60E00E94E6
:100CF000CC01802F0E94ED018F2D0E94ED010E94FA
:100D0000C2011F910F91FF90089580E090E0089537
:100D1000629FD001739FF001829FE00DF11D649FDF
:100D2000E00DF11D929FF00D839FF00D749FF00D6B
:100D3000659FF00D9927729FB00DE11DF91F639F0C
:100D4000B00DE11DF91FBD01CF011124089597FBDE
:100D5000092E05260ED057FD04D014D00AD0001C51
:100D600038F450954095309521953F4F4F4F5F4F48
:100D70000895F6F790958095709561957F4F8F4F08
:100D80009F4F0895A1E21A2EAA1BBB1BFD010DC0A7
:100D9000AA1FBB1FEE1FFF1FA217B307E407F5072B
:100DA00020F0A21BB30BE40BF50B661F771F881F07
:100DB000991F1A9469F760957095809590959B019D
:0C0DC000AC01BD01CF010895F894FFCFF5
:100DCC00313233343536373839306D6F617A212111
:00000001FF
